:100000000C9458000C9480000C9480000C94800098
:100010000C9480000C9480000C9480000C94800060
:100020000C9480000C9480000C9480000C94800050
:100030000C9480000C9480000C9480000C94800040
:100040000C946A040C9480000C94DA040C94B404AC
:100050000C9480000C9480000C9480000C94800020
:100060000C940C050C948000000000002500280072
:100070002B00040404040404040402020202020229
:10008000030303030303010204081020408001025C
:1000900004081020010204081020000000080002DB
:1000A00001000003040700000000000000002B0610
:1000B00011241FBECFEFD8E0DEBFCDBF11E0A0E01E
:1000C000B1E0EEEFF0E102C005900D92A633B1076A
:1000D000D9F722E0A6E3B1E001C01D92A23AB2072F
:1000E000E1F710E0C8E5D0E004C02197FE010E94CE
:1000F0007708C735D107C9F70E9464060C947D08BC
:100100000C94000090E0FC01E656FF4F2491FC01A6
:10011000EA57FF4F3491FC01EE58FF4FE491EE2374
:10012000C9F0222339F0233001F1A8F4213019F16C
:10013000223029F1F0E0EE0FFF1FE859FF4FA591A3
:10014000B4918FB7F894EC91611126C030953E239D
:100150003C938FBF08952730A9F02830C9F0243090
:1001600049F7809180008F7D03C0809180008F7758
:1001700080938000DFCF84B58F7784BDDBCF84B5DB
:100180008F7DFBCF8091B0008F778093B000D2CF6E
:100190008091B0008F7DF9CF3E2BDACF3FB7F89436
:1001A0008091A5019091A601A091A701B091A8010D
:1001B00026B5A89B05C02F3F19F00196A11DB11DC2
:1001C0003FBFBA2FA92F982F8827BC01CD01620FFE
:1001D000711D811D911D42E0660F771F881F991FB9
:1001E0004A95D1F7089580919F0190919E01891BB6
:1001F000990B089508950895AF92BF92CF92DF9220
:10020000EF92FF920F931F93CF93DF936C017B01CB
:100210008B01040F151FEB015E01AE18BF08C0175C
:10022000D10759F06991D601ED91FC910190F081CF
:10023000E02DC6010995892B79F7C501DF91CF9192
:100240001F910F91FF90EF90DF90CF90BF90AF90F4
:100250000895FC01538D448D252F30E0842F90E0CC
:10026000821B930B541710F0CF96089501970895B1
:10027000FC01918D828D981761F0A28DAE0FBF2F7A
:10028000B11D5D968C91928D9F5F9F73928F90E0D0
:1002900008958FEF9FEF0895FC01918D828D98173F
:1002A00031F0828DE80FF11D858D90E008958FEF7C
:1002B0009FEF0895FC01918D228D892F90E0805C45
:1002C0009F4F821B91098F739927089589EF91E0C1
:1002D0000E945A0121E0892B09F420E0822F089521
:1002E00080E090E0892B29F00E94660181110C9436
:1002F00000000895FC01A48DA80FB92FB11DA35AC9
:10030000BF4F2C91848D90E001968F739927848F35
:10031000A689B7892C93A089B1898C918370806458
:100320008C93938D848D981306C00288F389E02DF9
:1003300080818F7D80830895EF92FF920F931F93AA
:10034000CF93DF93EC0181E0888F9B8D8C8D981388
:100350001AC0E889F989808185FF15C09FB7F89494
:10036000EE89FF896083E889F989808183708064E0
:1003700080839FBF81E090E0DF91CF911F910F912B
:10038000FF90EF900895F62E0B8D10E00F5F1F4F3A
:100390000F731127E02E8C8D8E110CC00FB607FC49
:1003A000FACFE889F989808185FFF5CFCE010E94D7
:1003B0007A01F1CFEB8DEC0FFD2FF11DE35AFF4FCA
:1003C000F0829FB7F8940B8FEA89FB898081806265
:1003D000CFCFCF93DF93EC01888D8823B9F0AA8922
:1003E000BB89E889F9898C9185FD03C0808186FDF0
:1003F0000DC00FB607FCF7CF8C9185FFF2CF80813F
:1004000085FFEDCFCE010E947A01E9CFDF91CF9138
:10041000089520915701260F3327331F21323105CC
:10042000ECF42091CF01FC0190E080E0243069F0F1
:1004300082E00895A09157012191AC01495C5E4F83
:10044000A40FB52FB11D2C930196861798F38091B8
:100450005701680F6093570180E0089581E0089587
:100460001092CF0181E08093CE011092A90161E04A
:1004700082E10E94820061E083E10E948200E9EB58
:10048000F0E080818E7F808380818D7F808388E40F
:100490008093B80085E48093BC000895CF93DF93E8
:1004A00091E0909336018823B9F0C091B800D091C3
:1004B000BA008091BC008A7B8093BC0060E082E13E
:1004C0000E94820060E083E10E9482000E9430026C
:1004D000D093BA00C093B800DF91CF9108958F9266
:1004E0009F92AF92BF92CF92DF92EF92FF920F93C3
:1004F0001F93CF93DF93D091F801D13208F0D7C08A
:10050000182FC091F7010E94CE006B017C018091F1
:10051000CF0181116BC082E08093CF011093CE0197
:100520008FEF8093CD011092CC01D093CB01A7ED3A
:10053000B1E0EBEAF1E080E0D81391C01092AA019B
:100540008091AA01CC0FC82BC093AA018091A90168
:10055000813009F088C01092A9010E94CE006B0181
:100560007C018091AA018093BB008091D101909180
:10057000D201A091D301B091D401892B8A2B8B2B6E
:10058000A1F00E94CE000091D1011091D2012091E2
:10059000D3013091D4016C197D098E099F0906178A
:1005A00017072807390708F442C08091BC0083FD73
:1005B000D8CF85EC8093BC000E94CE006B017C01FB
:1005C0008091CF01823009F450C08091CD018F3FDE
:1005D00009F46FC08091CD01803209F46CC0809124
:1005E000CD01803309F469C084E026C08091D10137
:1005F0009091D201A091D301B091D401892B8A2B83
:100600008B2B09F484CF0E94CE008090D101909072
:10061000D201A090D301B090D4016C197D098E094C
:100620009F0986169706A806B90608F070CF809134
:10063000D0010E944E0285E01092D6011092F8017E
:100640001092D501DF91CF911F910F91FF90EF9004
:10065000DF90CF90BF90AF909F908F9008959D9125
:1006600091938F5F69CF85EEA5CF8091D101909155
:10067000D201A091D301B091D401892B8A2B8B2B6D
:1006800009F49ECF0E94CE000091D1011091D201B9
:100690002091D3013091D4016C197D098E099F09F5
:1006A000061717072807390708F08ACFC0CF81E05F
:1006B000C3CF80E0C1CF82E0BFCF83E0BDCF08953C
:1006C000E0919E0180919F01E81730F4F0E0E2583C
:1006D000FE4F808190E008958FEF9FEF08959091F5
:1006E0009E0180919F012FEF3FEF981748F4E92F6B
:1006F000F0E0E258FE4F208130E09F5F90939E0132
:10070000C9010895CF92DF92EF92FF920F931F934A
:10071000CF93DF937C01CB018A012091D501222365
:1007200089F0EB016B01C40ED51ECC15DD0569F017
:100730006991D701ED91FC910190F081E02DC70105
:100740000995F3CF642F0E940902C801DF91CF9170
:100750001F910F91FF90EF90DF90CF900895CF936E
:10076000DF931F92CDB7DEB769832091D501222395
:10077000F9F02091F801203258F021E030E0FC013E
:100780003383228390E080E00F90DF91CF91089532
:100790008091D601E82FF0E0E952FE4F99819083D5
:1007A0008F5F8093D6018093F80181E090E0ECCFD9
:1007B00061E0CE0101960E940902F7CF90E080E04F
:1007C0000895FC0101900020E9F73197AF01481B23
:1007D000590BBC0189EF91E00C94FC008F929F9221
:1007E000AF92BF920F931F93CF93DF93CDB7DEB736
:1007F000A1970FB6F894DEBF0FBECDBF19A242304D
:1008000008F44AE08E010F5D1F4F842E912CB12C0D
:10081000A12CA50194010E945508E62FB901CA0137
:10082000EA30F4F4E05DD801EE938D01232B242B04
:10083000252B79F790E080E0109719F0CD010E9408
:10084000E103A1960FB6F894DEBF0FBECDBFDF91D6
:10085000CF911F910F91BF90AF909F908F9008956F
:10086000E95CE1CF85ED8093BC008091D10190914E
:10087000D201A091D301B091D4010796A11DB11D61
:1008800023E0B695A795979587952A95D1F720915E
:10089000BC0024FD03C01092CF0108954091D10106
:1008A0005091D2016091D3017091D401452B462B18
:1008B000472B69F30097A105B10541F02AE22A957B
:1008C000F1F700C00197A109B109E1CF8091D001F2
:1008D0000C944E021F920F920FB60F9211242F9379
:1008E0003F938F939F93AF93BF938091A10190917A
:1008F000A201A091A301B091A4013091A00123E035
:10090000230F2D3758F50196A11DB11D2093A0018D
:100910008093A1019093A201A093A301B093A4019D
:100920008091A5019091A601A091A701B091A80185
:100930000196A11DB11D8093A5019093A601A093DE
:10094000A701B093A801BF91AF919F918F913F9163
:100950002F910F900FBE0F901F90189526E8230F30
:100960000296A11DB11DD2CF1F920F920FB60F920A
:1009700011242F933F934F935F936F937F938F93A4
:100980009F93AF93BF93EF93FF9389EF91E00E9402
:100990007A01FF91EF91BF91AF919F918F917F91DC
:1009A0006F915F914F913F912F910F900FBE0F90DC
:1009B0001F9018951F920F920FB60F9211242F932C
:1009C0008F939F93EF93FF93E0910902F0910A02B6
:1009D0008081E0910F02F091100282FD1BC0908196
:1009E000809112028F5F8F7320911302821741F062
:1009F000E0911202F0E0E750FE4F958F80931202D3
:100A0000FF91EF919F918F912F910F900FBE0F90BB
:100A10001F9018958081F4CF1F920F920FB60F92FE
:100A200011242F933F934F935F936F937F938F93F3
:100A30009F93AF93BF93EF93FF938091B900887F0B
:100A4000803609F44AC0F0F5883209F4A7C018F5D9
:100A5000803109F49BC0B8F4882309F4F9C08830C8
:100A600009F494C0FF91EF91BF91AF919F918F9145
:100A70007F916F915F914F913F912F910F900FBE9A
:100A80000F901F901895883109F488C0803251F773
:100A90008093CD0114C0803409F49DC040F48033AC
:100AA000B9F38833F9F68093CD0185ECB0C0803579
:100AB00009F485C0883509F496C0883499F60E94F7
:100AC0003204D0CF883909F48CC038F5883729F042
:100AD00050F4883611F0803729F683E08093CF01F7
:100AE0001092790157C0883809F47BC0803919F019
:100AF000803809F0B7CF80917901803208F071C059
:100B0000E091790181E08E0F809379018091BB00A3
:100B1000F0E0E75AFE4F80833DC0803B39F0E0F4BF
:100B2000803A09F479C0883A09F09CCF84E0809338
:100B3000CF011092580110925701E0917C01F09181
:100B40007D0109958091570181110FC081E080934B
:100B500057011092370109C0803C09F4A6CF883CA8
:100B600009F4A3CF883B09F07DCFE091580181E0E3
:100B70008E0F80935801F0E0E95CFE4F80818093F6
:100B8000BB00909158018091570129C08091AA0122
:100B90008093BB0085EC8093BC0064CF9091CC0126
:100BA0008091CB01981758F5E091CC0181E08E0F30
:100BB0008093CC01F0E0E555FE4F8081E9CFE091D4
:100BC000CC0181E08E0F8093CC018091BB00F0E0DE
:100BD000E555FE4F80839091CC018091CB01981711
:100BE000C8F285E8D8CFE091CC0181E08E0F8093E8
:100BF000CC018091BB00F0E0E555FE4F80838091F1
:100C0000CE0181115CCF81E08093A90184EA8093B9
:100C1000BC001092CF0126CF85EC8093BC001092CF
:100C2000CF0180917901803230F4E0917901F0E0D8
:100C3000E75AFE4F10826091790170E0E0917A01ED
:100C4000F0917B0189E591E00995109279010ACF35
:100C50001092CD0134CFE9EFF1E01382128288EED9
:100C600093E0A0E0B0E084839583A683B78324E07B
:100C700031E03183208325EC30E03587248724EC74
:100C800030E03787268720EC30E0318B208B21EC59
:100C900030E0338B228B22EC30E0358B248B26EC3A
:100CA00030E0378B268B118E128E138E148EE6E970
:100CB000F2E01382128284839583A683B78386E150
:100CC00091E0918380830895789484B5826084BD97
:100CD00084B5816084BD85B5826085BD85B5816040
:100CE00085BD80916E00816080936E0010928100BE
:100CF0008091810082608093810080918100816079
:100D00008093810080918000816080938000809139
:100D1000B10084608093B1008091B00081608093C5
:100D2000B00080917A00846080937A0080917A008C
:100D3000826080937A0080917A00816080937A004B
:100D400080917A00806880937A001092C100E091CF
:100D50000902F0910A0282E08083E0910502F0919D
:100D600006021082E0910702F09108028FEC808366
:100D700010921102E0910D02F0910E0286E0808344
:100D8000E0910B02F0910C02808180618083E09100
:100D90000B02F0910C02808188608083E0910B024D
:100DA000F0910C02808180688083E0910B02F091C9
:100DB0000C0280818F7D808310929E0110929F0192
:100DC0001092D6011092F8010E9430028AEF90E052
:100DD00090937D0180937C018BEF90E090937B0159
:100DE00080937A0184E291E00E94E10338E0832E4F
:100DF000912CA12CB12CC1E0C093D5018092F701B8
:100E00001092D6011092F80181E00E946F028111C8
:100E100009C08BE291E00E94E10340E1C501B40109
:100E20000E94EE032FEF821A920AA20AB20A88E702
:100E300088169104A104B104F9F68FE291E00E94B2
:100E4000E10311E005EE95EC392E20E0C22E20E002
:100E5000D22E22242A941093D50128E42093F7015E
:100E60001092D6011092F80160E086E992E00E94AB
:100E7000AF0381E00E946F020E94CE004B015C0133
:100E80008091CF01811161C01093CF011093CE01E9
:100E90002092CD011092CC011093CB011093AA01A6
:100EA0008091AA0180698093AA018091A901813073
:100EB00009F0D4C01092A9010E94CE004B015C0140
:100EC0008091AA018093BB008091D1019091D201C1
:100ED000A091D301B091D401892B8A2B8B2BA1F047
:100EE0000E94CE004090D1015090D2016090D30179
:100EF0007090D401681979098A099B09461657062A
:100F00006806790608F442C08091BC0083FDD8CF02
:100F10003092BC000E94CE004B015C018091CF0159
:100F2000813009F49EC08091CC01823008F0BBC0B2
:100F30008091CC01ABEAB1E0EEE7F1E090E09817E8
:100F400051F12D9121939F5FFACF8091D101909122
:100F5000D201A091D301B091D401892B8A2B8B2B84
:100F600009F48ECF0E94CE004090D1015090D20162
:100F70006090D3017090D401681979098A099B099E
:100F8000461657066806790608F07ACF8091D00198
:100F90000E944E0280E010929E0180939F01823059
:100FA00068F186E992E00E946F03B82E86E992E02C
:100FB0000E946F03EC0182E391E00E94E103E12CC7
:100FC000CE29DB294E01DD0FAA08BB084AE0C50186
:100FD000B401B7FE0DC06DE289EF91E00E949C0163
:100FE00066277727CB01681979098A099B094AE0A6
:100FF0000E94EE038FE291E00E94E1030E94CE0086
:101000002B013C0184E6882E912CA12CB12C0E944E
:10101000CE006419750986099709683E73408105F9
:101020009105A8F381E0881A9108A108B10828EE7B
:10103000420E23E0521E611C711C81149104A10414
:10104000B10429F7C114D10409F405CF0E94660147
:10105000882309F400CF0E940000FDCE0093BC005D
:1010600059CF8091D1019091D201A091D301B0913B
:10107000D401892B8A2B8B2B09F450CF0E94CE00F0
:101080004090D1015090D2016090D3017090D40172
:10109000681979098A099B09461657066806790670
:1010A00008F03CCF73CF82E045CFA1E21A2EAA1BF5
:1010B000BB1BFD010DC0AA1FBB1FEE1FFF1FA21708
:1010C000B307E407F50720F0A21BB30BE40BF50B05
:1010D000661F771F881F991F1A9469F7609570958E
:1010E000809590959B01AC01BD01CF010895EE0F55
:0E10F000FF1F0590F491E02D0994F894FFCFB6
:1010FE00000000009C01FC002901E9015A013801A1
:10110E004C0100000000AF038203DE035F03F30017
:10111E006F036003666F756E643A00203078000DC1
:06112E000A00743D000000
:00000001FF
