:100000000C945D000C9485000C9485000C94850084
:100010000C9485000C9485000C9485000C9485004C
:100020000C9485000C9485000C9485000C9485003C
:100030000C9485000C9485000C9485000C9485002C
:100040000C9443020C9485000C94B3020C948D0222
:100050000C9485000C9485000C9485000C9485000C
:100060000C9485000C9485000000000024002700FB
:100070002A0000000000250028002B0004040404CE
:100080000404040402020202020203030303030342
:10009000010204081020408001020408102001021F
:1000A00004081020000000080002010000030407FB
:1000B00000000000000000001D0411241FBECFEF4F
:1000C000D8E0DEBFCDBF11E0A0E0B1E0E4EAF8E0A7
:1000D00002C005900D92AA31B107D9F721E0AAE13B
:1000E000B1E001C01D92A13CB207E1F710E0CDE5FF
:1000F000D0E004C02197FE010E944A04CC35D1070C
:10010000C9F70E94E5020C9450040C94000090E0A2
:10011000FC01EC55FF4F2491FC01E057FF4F349157
:10012000FC01E458FF4FE491EE23C9F0222339F09B
:10013000233001F1A8F4213019F1223029F1F0E047
:10014000EE0FFF1FEE58FF4FA591B4918FB7F894B3
:10015000EC91611126C030953E233C938FBF0895EA
:100160002730A9F02830C9F0243049F78091800069
:100170008F7D03C0809180008F7780938000DFCFD8
:1001800084B58F7784BDDBCF84B58F7DFBCF809125
:10019000B0008F778093B000D2CF8091B0008F7D78
:1001A000F9CF3E2BDACFCF93DF9390E0FC01E057FD
:1001B000FF4F249184589F4FFC0184918823D1F0F4
:1001C00090E0880F991FFC01E859FF4FA591B49169
:1001D000FC01EE58FF4FC591D49161110EC09FB73D
:1001E000F8948C91E22FE0958E238C932881E22362
:1001F000E8839FBFDF91CF9108958FB7F894EC917A
:10020000E22BEC938FBFF6CF3FB7F894809120019B
:1002100090912101A0912201B091230126B5A89BC4
:1002200005C02F3F19F00196A11DB11D3FBFBA2F88
:10023000A92F982F8827BC01CD01620F711D811D48
:10024000911D42E0660F771F881F991F4A95D1F7CD
:100250000895AF92BF92CF92DF92EF92FF920F93E9
:100260001F93CF93DF936C017B018B01040F151F4C
:10027000EB015E01AE18BF08C017D10759F06991B4
:10028000D601ED91FC910190F081E02DC601099518
:10029000892B79F7C501DF91CF911F910F91FF90C5
:1002A000EF90DF90CF90BF90AF900895FC01538DF9
:1002B000448D252F30E0842F90E0821B930B541740
:1002C00010F0CF96089501970895FC01918D828DCD
:1002D000981761F0A28DAE0FBF2FB11D5D968C9166
:1002E000928D9F5F9F73928F90E008958FEF9FEFA5
:1002F0000895FC01918D828D981731F0828DE80F61
:10030000F11D858D90E008958FEF9FEF0895FC011A
:10031000918D228D892F90E0805C9F4F821B9109E7
:100320008F739927089584E291E00E94870121E06C
:10033000892B09F420E0822F089580E090E0892B3A
:1003400029F00E94930181110C9400000895FC0192
:10035000A48DA80FB92FB11DA35ABF4F2C91848D26
:1003600090E001968F739927848FA689B7892C9383
:10037000A089B1898C91837080648C93938D848DD6
:10038000981306C00288F389E02D80818F7D8083D9
:100390000895EF92FF920F931F93CF93DF93EC0199
:1003A00081E0888F9B8D8C8D98131AC0E889F9891C
:1003B000808185FF15C09FB7F894EE89FF8960831F
:1003C000E889F98980818370806480839FBF81E0A0
:1003D00090E0DF91CF911F910F91FF90EF900895E2
:1003E000F62E0B8D10E00F5F1F4F0F731127E02EBD
:1003F0008C8D8E110CC00FB607FCFACFE889F989F5
:10040000808185FFF5CFCE010E94A701F1CFEB8D52
:10041000EC0FFD2FF11DE35AFF4FF0829FB7F894C8
:100420000B8FEA89FB8980818062CFCFCF93DF93E6
:10043000EC01888D8823B9F0AA89BB89E889F989FC
:100440008C9185FD03C0808186FD0DC00FB607FC31
:10045000F7CF8C9185FFF2CF808185FFEDCFCE0164
:100460000E94A701E9CFDF91CF910895FC0101908F
:100470000020E9F73197AF01481B590BBC0184E21A
:1004800091E00C9429011F920F920FB60F92112444
:100490002F933F938F939F93AF93BF9380911C01B2
:1004A00090911D01A0911E01B0911F0130911B017F
:1004B00023E0230F2D3758F50196A11DB11D209380
:1004C0001B0180931C0190931D01A0931E01B0930A
:1004D0001F018091200190912101A0912201B091F2
:1004E00023010196A11DB11D80932001909321014C
:1004F000A0932201B0932301BF91AF919F918F915F
:100500003F912F910F900FBE0F901F90189526E8E6
:10051000230F0296A11DB11DD2CF1F920F920FB6CD
:100520000F9211242F933F934F935F936F937F9379
:100530008F939F93AF93BF93EF93FF9384E291E0E8
:100540000E94A701FF91EF91BF91AF919F918F9171
:100550007F916F915F914F913F912F910F900FBEBF
:100560000F901F9018951F920F920FB60F921124A3
:100570002F938F939F93EF93FF93E0913401F0912A
:1005800035018081E0913A01F0913B0182FD1BC071
:10059000908180913D018F5F8F7320913E01821782
:1005A00041F0E0913D01F0E0EC5DFE4F958F8093CE
:1005B0003D01FF91EF919F918F912F910F900FBE71
:1005C0000F901F9018958081F4CFCF93DF93CDB714
:1005D000DEB7A1970FB6F894DEBF0FBECDBF7894FB
:1005E00084B5826084BD84B5816084BD85B5826038
:1005F00085BD85B5816085BD80916E0081608093E9
:100600006E00109281008091810082608093810051
:100610008091810081608093810080918000816061
:10062000809380008091B10084608093B1008091BC
:10063000B00081608093B00080917A0084608093E4
:100640007A0080917A00826080937A0080917A00AB
:10065000816080937A0080917A00806880937A002C
:100660001092C100E0913401F091350182E0808365
:10067000E0913001F09131011082E0913201F0916E
:1006800033018FEC808310923C01E0913801F091AE
:10069000390186E08083E0913601F0913701808155
:1006A00080618083E0913601F0913701808188601C
:1006B0008083E0913601F0913701808180688083EA
:1006C000E0913601F091370180818F7D808361E078
:1006D00089E00E94D30061E089E00E9487001FB793
:1006E000F89480911A01811127C0E6E8F0E0849126
:1006F000EAE9F0E09491E82FF0E0EE0FFF1FE859EF
:10070000FF4FA591B491EC91E92321F461E08AE0D7
:100710000E94870061E08AE00E94D3008CB580616E
:100720008CBD8CB580648CBD61E08DE00E94D300EF
:1007300061E08BE00E94D30080911A018F5F80936B
:100740001A011FBF60E08AE00E94D3008DE58CBDD6
:100750001DBC20E8F22E00E010E060E089E00E947D
:100760008700FEBC00000DB407FEFDCF8EB582E110
:1007700091E00E9436021EBC00000DB407FEFDCFC2
:100780004EB550E070E060E019A2FE01B196DB01C9
:10079000CA018F709927AA27BB2794E076956795A1
:1007A000579547959A95D1F78A300CF044C0805DF3
:1007B0008293411551056105710549F7309719F08C
:1007C000CF010E94360286E191E00E94360261E08C
:1007D00089E00E9487000E9404012B013C0182E312
:1007E000882E912CA12CB12C0E940401641975094A
:1007F00086099709683E734081059105A8F321E0B9
:10080000821A9108A108B10888EE480E83E0581EAC
:10081000611C711C81149104A104B10429F7011514
:10082000110509F49ACF0E949301882309F495CF0A
:100830000E94000092CF895CBBCFE4E2F1E013821A
:10084000128288EE93E0A0E0B0E084839583A683D3
:10085000B78384E091E09183808385EC90E0958775
:10086000848784EC90E09787868780EC90E0918B7A
:10087000808B81EC90E0938B828B82EC90E0958B67
:10088000848B86EC90E0978B868B118E128E138E64
:10089000148E0895EE0FFF1F0590F491E02D09943A
:0408A000F894FFCFFA
:1008A40000000000C90129015601160287016501F3
:0A08B400790169643D000D0A00009F
:00000001FF
