:100000000C945D000C9485000C9485000C94850084
:100010000C9485000C9485000C9485000C9485004C
:100020000C9485000C9485000C9485000C9485003C
:100030000C9485000C9485000C9485000C9485002C
:100040000C94A4020C9485000C9414030C94EE02FE
:100050000C9485000C9485000C9485000C9485000C
:100060000C9485000C94850000000008000201003B
:100070000003040700000000000000000000000072
:10008000250028002B0000000000240027002A0083
:10009000040404040404040402020202020203032E
:1000A0000303030301020408102040800102040836
:1000B0001020010204081020820411241FBECFEF7B
:1000C000D8E0DEBFCDBF11E0A0E0B1E0E2EBF9E0A7
:1000D00002C005900D92A832B107D9F721E0A8E23D
:1000E000B1E001C01D92AF3CB207E1F710E0CDE5F1
:1000F000D0E004C02197FE010E94D104CC35D10785
:10010000C9F70E9446030C94D7040C94000090E0B9
:10011000FC01EC55FF4F249180579F4FFC018491C7
:10012000882399F090E0880F991FFC01EA57FF4F50
:10013000A591B491FC01E458FF4F859194918FB73C
:10014000F894EC91E22BEC938FBF089590E0FC01C2
:10015000E859FF4F2491FC01EC55FF4F3491FC010D
:10016000E057FF4FE491EE23C9F0222339F023300A
:1001700001F1A8F4213019F1223029F1F0E0EE0F5D
:10018000FF1FE458FF4FA591B4918FB7F894EC91FD
:10019000611126C030953E233C938FBF08952730D0
:1001A000A9F02830C9F0243049F7809180008F7D74
:1001B00003C0809180008F7780938000DFCF84B56B
:1001C0008F7784BDDBCF84B58F7DFBCF8091B0006E
:1001D0008F778093B000D2CF8091B0008F7DF9CF20
:1001E0003E2BDACF3FB7F89480912E0190912F01EA
:1001F000A0913001B091310126B5A89B05C02F3FD9
:1002000019F00196A11DB11D3FBFBA2FA92F982F3C
:100210008827BC01CD01620F711D811D911D42E037
:10022000660F771F881F991F4A95D1F70895AF92DF
:10023000BF92CF92DF92EF92FF920F931F93CF93D3
:10024000DF936C017B018B01040F151FEB015E0135
:10025000AE18BF08C017D10759F06991D601ED91CA
:10026000FC910190F081E02DC6010995892B79F769
:10027000C501DF91CF911F910F91FF90EF90DF901B
:10028000CF90BF90AF900895FC01538D448D252FE2
:1002900030E0842F90E0821B930B541710F0CF9620
:1002A000089501970895FC01918D828D981761F052
:1002B000A28DAE0FBF2FB11D5D968C91928D9F5F69
:1002C0009F73928F90E008958FEF9FEF0895FC0148
:1002D000918D828D981731F0828DE80FF11D858DFB
:1002E00090E008958FEF9FEF0895FC01918D228D8E
:1002F000892F90E0805C9F4F821B91098F73992713
:10030000089582E391E00E94750121E0892B09F4B0
:1003100020E0822F089580E090E0892B29F00E9450
:10032000810181110C9400000895FC01A48DA80F97
:10033000B92FB11DA35ABF4F2C91848D90E0019627
:100340008F739927848FA689B7892C93A089B18947
:100350008C91837080648C93938D848D981306C0E8
:100360000288F389E02D80818F7D80830895EF924C
:10037000FF920F931F93CF93DF93EC0181E0888F5F
:100380009B8D8C8D98131AC0E889F989808185FF2F
:1003900015C09FB7F894EE89FF896083E889F989D1
:1003A00080818370806480839FBF81E090E0DF91D3
:1003B000CF911F910F91FF90EF900895F62E0B8D26
:1003C00010E00F5F1F4F0F731127E02E8C8D8E11E1
:1003D0000CC00FB607FCFACFE889F989808185FF48
:1003E000F5CFCE010E949501F1CFEB8DEC0FFD2FE3
:1003F000F11DE35AFF4FF0829FB7F8940B8FEA8903
:10040000FB8980818062CFCFCF93DF93EC01888D11
:100410008823B9F0AA89BB89E889F9898C9185FD7F
:1004200003C0808186FD0DC00FB607FCF7CF8C910D
:1004300085FFF2CF808185FFEDCFCE010E9495012F
:10044000E9CFDF91CF9108958EBD00000DB407FE76
:10045000FDCF8EB50895CF93C82F60E089E00E944C
:10046000A6008C2F80680E94240280E00E94240253
:10047000C82F61E089E00E94A6008C2FCF910895DB
:10048000FC0101900020E9F73197AF01481B590B9F
:10049000BC0182E391E00C9417018F929F92AF927E
:1004A000BF920F931F93CF93DF93CDB7DEB7A19782
:1004B0000FB6F894DEBF0FBECDBF19A2423008F4CC
:1004C0004AE08E010F5D1F4F842E912CB12CA12C80
:1004D000A50194010E94AF04E62FB901CA01EA30D8
:1004E000F4F4E05DD801EE938D01232B242B252B12
:1004F00079F790E080E0109719F0CD010E9440025A
:10050000A1960FB6F894DEBF0FBECDBFDF91CF919D
:100510001F910F91BF90AF909F908F900895E95CCD
:10052000E1CFCF93DF93682F70E090E080E040E16F
:100530000E944D02EC0182E191E00E9440028C0F8A
:100540009D1FDF91CF9108951F920F920FB60F92CA
:1005500011242F933F938F939F93AF93BF938091D9
:100560002A0190912B01A0912C01B0912D01309185
:10057000290123E0230F2D3758F50196A11DB11D48
:100580002093290180932A0190932B01A0932C01A1
:10059000B0932D0180912E0190912F01A0913001F7
:1005A000B09131010196A11DB11D80932E01909350
:1005B0002F01A0933001B0933101BF91AF919F9172
:1005C0008F913F912F910F900FBE0F901F90189514
:1005D00026E8230F0296A11DB11DD2CF1F920F92C4
:1005E0000FB60F9211242F933F934F935F936F9306
:1005F0007F938F939F93AF93BF93EF93FF9382E388
:1006000091E00E949501FF91EF91BF91AF919F9171
:100610008F917F916F915F914F913F912F910F90AB
:100620000FBE0F901F9018951F920F920FB60F924A
:1006300011242F938F939F93EF93FF93E0914201A7
:10064000F09143018081E0914801F091490182FDE0
:100650001BC0908180914B018F5F8F7320914C0163
:10066000821741F0E0914B01F0E0EE5CFE4F958F78
:1006700080934B01FF91EF919F918F912F910F905C
:100680000FBE0F901F9018958081F4CF789484B599
:10069000826084BD84B5816084BD85B5826085BD7E
:1006A00085B5816085BD80916E00816080936E000C
:1006B00010928100809181008260809381008091FE
:1006C00081008160809381008091800081608093AF
:1006D00080008091B10084608093B1008091B0006F
:1006E00081608093B00080917A00846080937A006A
:1006F00080917A00826080937A0080917A00816094
:1007000080937A0080917A00806880937A001092BA
:10071000C100E0914201F091430182E08083E091C9
:100720003E01F0913F011082E0914001F0914101C2
:100730008FEC808310924A01E0914601F0914701CD
:1007400086E08083E0914401F091450180818061E1
:100750008083E0914401F09145018081886080832D
:10076000E0914401F0914501808180688083E091AF
:100770004401F091450180818F7D808389E00E9452
:10078000870061E089E00E94A6008AE00E9487005D
:10079000CFB7F89480912801811124C0EAE9F0E0F4
:1007A0008491EEEAF0E09491E82FF0E0EE0FFF1F65
:1007B000EA57FF4FA591B491EC91E92321F461E050
:1007C0008AE00E94A6008AE00E9487008CB58061C2
:1007D0008CBD8CB580648CBD8DE00E9487008BE061
:1007E0000E948700809128018F5F80932801CFBFEE
:1007F0008DE58CBD1DBC85E191E00E94400280E04A
:100800000E942B020E94910260E089E00E94A600F3
:100810008DE20E94240288E00E94240261E089E0C7
:100820000E94A60089E191E00E9440028DE20E94B0
:100830002B020E94910280E80E9424028EE191E046
:100840000E94400280E00E9424020E949102C0E0C7
:10085000D0E084E291E00E94400286E30E942B02F5
:10086000F82E87E30E942B029F2D6C01092E000CAD
:10087000EE08FF0897FF42C06DE282E391E00E941C
:10088000B70166277727CB016C197D098E099F096F
:100890004AE00E944D0282E191E00E9440020E94E3
:1008A000F2004B015C0182E3C82ED12CE12CF12C2B
:1008B0000E94F200681979098A099B09683E734011
:1008C00081059105A8F321E0C21AD108E108F108D9
:1008D00088EE880E83E0981EA11CB11CC114D104BF
:1008E000E104F10429F7209709F4B3CF0E948101B4
:1008F000882309F4AECF0E940000ABCF4AE0C701C5
:10090000B601C7CFE2E3F1E01382128288EE93E0F2
:10091000A0E0B0E084839583A683B78384E091E070
:100920009183808385EC90E09587848784EC90E0C8
:100930009787868780EC90E0918B808B81EC90E0AC
:10094000938B828B82EC90E0958B848B86EC90E08D
:10095000978B868B118E128E138E148E0895A1E2C2
:100960001A2EAA1BBB1BFD010DC0AA1FBB1FEE1F29
:10097000FF1FA217B307E407F50720F0A21BB30B74
:10098000E40BF50B661F771F881F991F1A9469F7F0
:1009900060957095809590959B01AC01BD01CF014C
:1009A0000895EE0FFF1F0590F491E02D0994F8943F
:0209B000FFCF77
:1009B20000000000B7011701440104027501530150
:1009C20067010D0A0069643D007077723D006E6F29
:0809D20063733D007A3D000053
:00000001FF
